{
  "_format": "hh-sol-artifact-1",
  "contractName": "DataWipeProof",
  "sourceName": "contracts/DataWipeProof.sol",
  "abi": [
    {
      "anonymous": false,
      "inputs": [
        {
          "indexed": true,
          "internalType": "uint256",
          "name": "index",
          "type": "uint256"
        },
        {
          "indexed": false,
          "internalType": "string",
          "name": "deviceId",
          "type": "string"
        },
        {
          "indexed": false,
          "internalType": "string",
          "name": "status",
          "type": "string"
        }
      ],
      "name": "ProofStored",
      "type": "event"
    },
    {
      "inputs": [
        {
          "internalType": "uint256",
          "name": "index",
          "type": "uint256"
        }
      ],
      "name": "getProof",
      "outputs": [
        {
          "components": [
            {
              "internalType": "string",
              "name": "deviceId",
              "type": "string"
            },
            {
              "internalType": "string",
              "name": "beforeHash",
              "type": "string"
            },
            {
              "internalType": "string",
              "name": "afterHash",
              "type": "string"
            },
            {
              "internalType": "string",
              "name": "status",
              "type": "string"
            },
            {
              "internalType": "uint256",
              "name": "timestamp",
              "type": "uint256"
            }
          ],
          "internalType": "struct DataWipeProof.ProofRecord",
          "name": "",
          "type": "tuple"
        }
      ],
      "stateMutability": "view",
      "type": "function"
    },
    {
      "inputs": [],
      "name": "getTotalProofs",
      "outputs": [
        {
          "internalType": "uint256",
          "name": "",
          "type": "uint256"
        }
      ],
      "stateMutability": "view",
      "type": "function"
    },
    {
      "inputs": [
        {
          "internalType": "uint256",
          "name": "",
          "type": "uint256"
        }
      ],
      "name": "proofs",
      "outputs": [
        {
          "internalType": "string",
          "name": "deviceId",
          "type": "string"
        },
        {
          "internalType": "string",
          "name": "beforeHash",
          "type": "string"
        },
        {
          "internalType": "string",
          "name": "afterHash",
          "type": "string"
        },
        {
          "internalType": "string",
          "name": "status",
          "type": "string"
        },
        {
          "internalType": "uint256",
          "name": "timestamp",
          "type": "uint256"
        }
      ],
      "stateMutability": "view",
      "type": "function"
    },
    {
      "inputs": [
        {
          "internalType": "string",
          "name": "_deviceId",
          "type": "string"
        },
        {
          "internalType": "string",
          "name": "_beforeHash",
          "type": "string"
        },
        {
          "internalType": "string",
          "name": "_afterHash",
          "type": "string"
        },
        {
          "internalType": "string",
          "name": "_status",
          "type": "string"
        }
      ],
      "name": "storeProof",
      "outputs": [],
      "stateMutability": "nonpayable",
      "type": "function"
    },
    {
      "inputs": [],
      "name": "totalProofs",
      "outputs": [
        {
          "internalType": "uint256",
          "name": "",
          "type": "uint256"
        }
      ],
      "stateMutability": "view",
      "type": "function"
    }
  ],
  "bytecode": "0x608060405234801561001057600080fd5b50611049806100206000396000f3fe608060405234801561001057600080fd5b50600436106100575760003560e01c806311149ada1461005c5780632ded35681461008c5780639b1bc0c9146100aa5780639ddaf5aa146100c8578063cd91a013146100fc575b600080fd5b610076600480360381019061007191906107b3565b610118565b604051610083919061090a565b60405180910390f35b6100946103da565b6040516100a1919061093b565b60405180910390f35b6100b26103e0565b6040516100bf919061093b565b60405180910390f35b6100e260048036038101906100dd91906107b3565b6103ea565b6040516100f39594939291906109a0565b60405180910390f35b61011660048036038101906101119190610b44565b610640565b005b61012061073a565b6001548210610164576040517f08c379a000000000000000000000000000000000000000000000000000000000815260040161015b90610c67565b60405180910390fd5b6000808381526020019081526020016000206040518060a001604052908160008201805461019190610cb6565b80601f01602080910402602001604051908101604052809291908181526020018280546101bd90610cb6565b801561020a5780601f106101df5761010080835404028352916020019161020a565b820191906000526020600020905b8154815290600101906020018083116101ed57829003601f168201915b5050505050815260200160018201805461022390610cb6565b80601f016020809104026020016040519081016040528092919081815260200182805461024f90610cb6565b801561029c5780601f106102715761010080835404028352916020019161029c565b820191906000526020600020905b81548152906001019060200180831161027f57829003601f168201915b505050505081526020016002820180546102b590610cb6565b80601f01602080910402602001604051908101604052809291908181526020018280546102e190610cb6565b801561032e5780601f106103035761010080835404028352916020019161032e565b820191906000526020600020905b81548152906001019060200180831161031157829003601f168201915b5050505050815260200160038201805461034790610cb6565b80601f016020809104026020016040519081016040528092919081815260200182805461037390610cb6565b80156103c05780601f10610395576101008083540402835291602001916103c0565b820191906000526020600020905b8154815290600101906020018083116103a357829003601f168201915b505050505081526020016004820154815250509050919050565b60015481565b6000600154905090565b600060205280600052604060002060009150905080600001805461040d90610cb6565b80601f016020809104026020016040519081016040528092919081815260200182805461043990610cb6565b80156104865780601f1061045b57610100808354040283529160200191610486565b820191906000526020600020905b81548152906001019060200180831161046957829003601f168201915b50505050509080600101805461049b90610cb6565b80601f01602080910402602001604051908101604052809291908181526020018280546104c790610cb6565b80156105145780601f106104e957610100808354040283529160200191610514565b820191906000526020600020905b8154815290600101906020018083116104f757829003601f168201915b50505050509080600201805461052990610cb6565b80601f016020809104026020016040519081016040528092919081815260200182805461055590610cb6565b80156105a25780601f10610577576101008083540402835291602001916105a2565b820191906000526020600020905b81548152906001019060200180831161058557829003601f168201915b5050505050908060030180546105b790610cb6565b80601f01602080910402602001604051908101604052809291908181526020018280546105e390610cb6565b80156106305780601f1061060557610100808354040283529160200191610630565b820191906000526020600020905b81548152906001019060200180831161061357829003601f168201915b5050505050908060040154905085565b6040518060a0016040528085815260200184815260200183815260200182815260200142815250600080600154815260200190815260200160002060008201518160000190816106909190610e93565b5060208201518160010190816106a69190610e93565b5060408201518160020190816106bc9190610e93565b5060608201518160030190816106d29190610e93565b50608082015181600401559050506001547fe45d01e3d871b4085d1e29be866b17bdc30779ec9990a7a8a1f1f458d0963f398583604051610714929190610f65565b60405180910390a26001600081548092919061072f90610fcb565b919050555050505050565b6040518060a0016040528060608152602001606081526020016060815260200160608152602001600081525090565b6000604051905090565b600080fd5b600080fd5b6000819050919050565b6107908161077d565b811461079b57600080fd5b50565b6000813590506107ad81610787565b92915050565b6000602082840312156107c9576107c8610773565b5b60006107d78482850161079e565b91505092915050565b600081519050919050565b600082825260208201905092915050565b60005b8381101561081a5780820151818401526020810190506107ff565b60008484015250505050565b6000601f19601f8301169050919050565b6000610842826107e0565b61084c81856107eb565b935061085c8185602086016107fc565b61086581610826565b840191505092915050565b6108798161077d565b82525050565b600060a083016000830151848203600086015261089c8282610837565b915050602083015184820360208601526108b68282610837565b915050604083015184820360408601526108d08282610837565b915050606083015184820360608601526108ea8282610837565b91505060808301516108ff6080860182610870565b508091505092915050565b60006020820190508181036000830152610924818461087f565b905092915050565b6109358161077d565b82525050565b6000602082019050610950600083018461092c565b92915050565b600082825260208201905092915050565b6000610972826107e0565b61097c8185610956565b935061098c8185602086016107fc565b61099581610826565b840191505092915050565b600060a08201905081810360008301526109ba8188610967565b905081810360208301526109ce8187610967565b905081810360408301526109e28186610967565b905081810360608301526109f68185610967565b9050610a05608083018461092c565b9695505050505050565b600080fd5b600080fd5b7f4e487b7100000000000000000000000000000000000000000000000000000000600052604160045260246000fd5b610a5182610826565b810181811067ffffffffffffffff82111715610a7057610a6f610a19565b5b80604052505050565b6000610a83610769565b9050610a8f8282610a48565b919050565b600067ffffffffffffffff821115610aaf57610aae610a19565b5b610ab882610826565b9050602081019050919050565b82818337600083830152505050565b6000610ae7610ae284610a94565b610a79565b905082815260208101848484011115610b0357610b02610a14565b5b610b0e848285610ac5565b509392505050565b600082601f830112610b2b57610b2a610a0f565b5b8135610b3b848260208601610ad4565b91505092915050565b60008060008060808587031215610b5e57610b5d610773565b5b600085013567ffffffffffffffff811115610b7c57610b7b610778565b5b610b8887828801610b16565b945050602085013567ffffffffffffffff811115610ba957610ba8610778565b5b610bb587828801610b16565b935050604085013567ffffffffffffffff811115610bd657610bd5610778565b5b610be287828801610b16565b925050606085013567ffffffffffffffff811115610c0357610c02610778565b5b610c0f87828801610b16565b91505092959194509250565b7f50726f6f6620646f6573206e6f74206578697374000000000000000000000000600082015250565b6000610c51601483610956565b9150610c5c82610c1b565b602082019050919050565b60006020820190508181036000830152610c8081610c44565b9050919050565b7f4e487b7100000000000000000000000000000000000000000000000000000000600052602260045260246000fd5b60006002820490506001821680610cce57607f821691505b602082108103610ce157610ce0610c87565b5b50919050565b60008190508160005260206000209050919050565b60006020601f8301049050919050565b600082821b905092915050565b600060088302610d497fffffffffffffffffffffffffffffffffffffffffffffffffffffffffffffffff82610d0c565b610d538683610d0c565b95508019841693508086168417925050509392505050565b6000819050919050565b6000610d90610d8b610d868461077d565b610d6b565b61077d565b9050919050565b6000819050919050565b610daa83610d75565b610dbe610db682610d97565b848454610d19565b825550505050565b600090565b610dd3610dc6565b610dde818484610da1565b505050565b5b81811015610e0257610df7600082610dcb565b600181019050610de4565b5050565b601f821115610e4757610e1881610ce7565b610e2184610cfc565b81016020851015610e30578190505b610e44610e3c85610cfc565b830182610de3565b50505b505050565b600082821c905092915050565b6000610e6a60001984600802610e4c565b1980831691505092915050565b6000610e838383610e59565b9150826002028217905092915050565b610e9c826107e0565b67ffffffffffffffff811115610eb557610eb4610a19565b5b610ebf8254610cb6565b610eca828285610e06565b600060209050601f831160018114610efd5760008415610eeb578287015190505b610ef58582610e77565b865550610f5d565b601f198416610f0b86610ce7565b60005b82811015610f3357848901518255600182019150602085019450602081019050610f0e565b86831015610f505784890151610f4c601f891682610e59565b8355505b6001600288020188555050505b505050505050565b60006040820190508181036000830152610f7f8185610967565b90508181036020830152610f938184610967565b90509392505050565b7f4e487b7100000000000000000000000000000000000000000000000000000000600052601160045260246000fd5b6000610fd68261077d565b91507fffffffffffffffffffffffffffffffffffffffffffffffffffffffffffffffff820361100857611007610f9c565b5b60018201905091905056fea26469706673582212201f6c3dd1c7e14419ef660a0814d2229788523c0fe0642331aaead6e3c735296164736f6c63430008180033",
  "linkReferences": {},
  "deployedLinkReferences": {}
}